:020000040800F2
:100000000080002089190008FD030008FF03000894
:1000100001040008030400080504000800000000B3
:1000200000000000000000000000000007040008BD
:1000300009040008000000000B0400080D0400087B
:10004000D9190008D9190008D9190008D9190008C8
:10005000D9190008D9190008D9190008D9190008B8
:10006000D9190008D9190008D9190008D9190008A8
:10007000D9190008D9190008D9190008D919000898
:10008000D9190008D9190008D9190008D919000888
:10009000D9190008D9190008D9190008D919000878
:1000A000D9190008D9190008D9190008D919000868
:1000B000D9190008D9190008D9190008D919000858
:1000C000D9190008D9190008D9190008D919000848
:1000D000D9190008D9190008D9190008D919000838
:1000E000D9190008D9190008D9190008D919000828
:1000F000D9190008D9190008D9190008D919000818
:10010000000000000000000000000000D9190008F5
:10011000D9190008D9190008D9190008D9190008F7
:10012000D9190008D9190008D9190008D9190008E7
:10013000D9190008D91900080000000000000000CB
:10014000D9190008D9190008D919000800000000C1
:10015000000000000000000000000000000000009F
:100160000000000000000000D9190008D91900089B
:10017000D919000800000000000000000000000085
:0801800000000000D91900087D
:100188000348044B834202D0034B03B1184770471E
:100198000C0000200C000020000000000548064B61
:1001A8001B1AD90F01EBA301491002D0034B03B16D
:1001B800184770470C0000200C00002000000000C9
:1001C80010B5064C237843B9FFF7DAFF044B13B197
:1001D8000448AFF300800123237010BD0C000020F9
:1001E80000000000341A000808B5054B1BB105498A
:1001F8000548AFF30080BDE80840FFF7CFBF00BF58
:100208000000000010000020341A000870B588B003
:10021800002403940494059406940794204B5A6987
:1002280042F400225A615A6902F400220092009AAC
:100238005A6942F480025A615A6902F480020192B2
:10024800019A5A6942F400325A615B6903F4003337
:100258000293029B134E22464FF40051304601F0A0
:10026800C3FA22464FF400714FF0904001F0BCFAF7
:100278004FF400530393012504950594069403A9AC
:10028800304601F0CDF94FF40073039304950594BB
:10029800069403A94FF0904001F0C2F908B070BD70
:1002A800001002400008004872B6FEE708B50B4887
:1002B8000B4B03604FF41643436000238360C36015
:1002C80003610C2242618361C3610362436200F0EF
:1002D800A0FB00B908BDFFF7E7FF00BFFC02002044
:1002E8000044004008B501224FF400714FF09040DF
:1002F80001F07AFA0848094B0360082303710223C6
:100308004371C37100234372C37201F0DDFA00B96F
:1003180008BDFFF7C9FF00BF28000020005C0040AF
:1003280000B59FB02822002114A801F077FB002116
:100338000F9110911191129113913C22684601F08E
:100348006DFB012214924FF4803315931892022208
:100358001B921C934FF480131D9314A800F0E8FB24
:10036800E8B90F230F9302231093002311934FF43E
:1003780080621292139301210FA800F01BFF80B92D
:100388004FF002130093002303934FF480030E935E
:10039800684601F015F830B91FB05DF804FBFFF7A7
:1003A80083FFFFF781FFFFF77FFF000008B500F02C
:1003B80087FBFFF7B5FFFFF729FFFFF777FFFFF789
:1003C80091FF4FF4FA7000F09FFB094C01224FF4A3
:1003D8000051204601F008FA4FF4FA7000F094FB3F
:1003E80000224FF40051204601F0FEF9E9E700BF72
:1003F80000080048FEE7FEE7FEE7FEE7FEE7704775
:100408007047704708B500F06DFB08BD82B00A4B15
:100418009A6942F001029A619A6902F00102009217
:10042800009ADA6942F08052DA61DB6903F080539E
:100438000193019B02B070470010024000B589B0DB
:100448000023039304930593069307930268144BC0
:100458009A4202D009B05DF804FB03F5E633DA6985
:1004680042F40032DA61DA6902F400320192019A48
:100478005A6942F400325A615B6903F4003302930B
:10048800029B4FF4404303930223049303230693F0
:100498000723079303A94FF0904001F0C1F8D9E76B
:1004A8000044004010B588B00023039304930593DB
:1004B800069307930268134B9A4201D008B010BD07
:1004C800114C636943F400336361636903F40033D7
:1004D8000193019B4FF4C053039302230493032316
:1004E80006930E23079303A94FF0904001F098F864
:1004F800E36943F40003E361E36903F4000302934F
:10050800029BDBE7005C004000100240B0F840307E
:1005180023F47C535B045B0CA0F840300020704748
:1005280082B0034602A800E906000122A3F8402091
:100538000020A3F84000A3F84400A3F8500002B03C
:100548007047026852E8003F23F4907342E8003194
:100558000029F6D1026802F1080353E8003F23F0AE
:100568000103083242E800310029F3D1036E012B60
:1005780006D02023C0F880300023036683667047C6
:10058800026852E8003F23F0100342E800310029D6
:10059800F6D1EEE710B50446836802691A43436949
:1005A8001A43C3691A4301680B6823F4164323F0FE
:1005B8000C0313430B600268536823F44053C1686B
:1005C8000B4353608269036A1A4301688B6823F4FA
:1005D800306313438B6003687B4A93420DD07B4A98
:1005E80093421CD07A4A93423AD07A4A93424AD0EC
:1005F800794A93425AD010231FE0784B1B6B03F0C3
:100608000303032B09D8DFE803F00204066401237F
:1006180013E0042311E008230FE010230DE06F4BD3
:100628001B6B03F44033B3F5003F54D013D8002BB1
:1006380053D0B3F5803F52D10423E069B0F5004FA1
:1006480069D0082B00F2B980DFE803F092A890B7D0
:10065800ABB7B7B7AE00B3F5403F42D10223ECE7E2
:100668005E4B1B6B03F44023B3F5002F3BD005D83A
:10067800DBB3B3F5802F3AD10423DEE7B3F5402F7F
:1006880037D10223D9E7554B1B6B03F44013B3F55D
:10069800001F30D005D883B3B3F5801F2FD10423B2
:1006A800CBE7B3F5401F2CD10223C6E74B4B1B6B9E
:1006B80003F44003B3F5000F25D005D82BB3B3F5E9
:1006C800800F24D10423B8E7B3F5400F21D10223CA
:1006D800B3E70223B1E70823AFE70023ADE7102310
:1006E800ABE71023A9E70823A7E70023A5E7102312
:1006F800A3E71023A1E708239FE700239DE7102322
:100708009BE7102399E7082397E7002395E7102331
:1007180093E7102391E7082B49D8DFE803F0051F7A
:10072800254822484848090000F01EFE002840D00D
:100738006268530803EB4003B3FBF2F3A3F1100123
:100748004FF6EF72914236D89AB222F00F02C3F3F5
:10075800420313432268D36000201BE000F01AFE16
:10076800E4E700F0FDFCE1E71D48E1E71C4802E092
:1007780000F0FAFD18B3636800EB5300B0FBF3F028
:10078800A0F110024FF6EF739A421AD8236880B28C
:10079800D86000200023A366E36610BD00F0FAFDD0
:1007A800E8E700F0DDFCE5E74FF40040E3E701206F
:1007B800F0E70020EEE70120ECE70120EAE700205F
:1007C800E8E70120E6E700BF0038014000440040A8
:1007D80000480040004C004000500040001002401B
:1007E80000127A00436A13F0080F06D002685368B3
:1007F80023F40043416B0B435360436A13F0010F2A
:1008080006D00268536823F40033816A0B435360AF
:10081800436A13F0020F06D00268536823F480334A
:10082800C16A0B435360436A13F0040F06D0026891
:10083800536823F48023016B0B435360436A13F01E
:10084800100F06D00268936823F48053816B0B4322
:100858009360436A13F0200F06D00268936823F46C
:100868000053C16B0B439360436A13F0400F0AD0E7
:100878000268536823F48013016C0B435360036CC4
:10088800B3F5801F0BD0436A13F0800F06D00268BF
:10089800536823F40023816C0B435360704702684C
:1008A800536823F4C003416C0B435360EBE72DE915
:1008B800F84305460E4617469946DDF820802B6812
:1008C800DC6936EA04040CBF01240024BC4236D19A
:1008D800B8F1FF3FF3D000F011F9A0EB0900404553
:1008E80030D8B8F1000F2FD02B681A6812F0040F17
:1008F800E5D0802EE3D0402EE1D0DA6912F0080F5F
:1009080011D1DA6912F4006FD9D04FF400621A627B
:100918002846FFF716FE2023C5F88430002385F803
:10092800783003200CE008241C622846FFF709FEF3
:10093800C5F88440002385F87830012000E00020C5
:10094800BDE8F8830320FBE70320F9E730B583B05F
:1009580004460023C0F8843000F0D0F80546226829
:10096800126812F0080F0FD123681B6813F0040FE8
:1009780026D12023E367C4F8803000202066606613
:1009880084F8780003B030BD6FF07E4300930346CF
:1009980000224FF400112046FFF789FF0028E3D01A
:1009A800226852E8003F23F0800342E80031002922
:1009B800F6D12023E367002384F878300320E1E7A9
:1009C8006FF07E4300932B4600224FF480012046AF
:1009D800FFF76DFF0028CCD0226852E8003F23F4CF
:1009E800907342E800310029F6D1226802F1080329
:1009F80053E8003F23F00103083242E800310029A0
:100A0800F3D12023C4F88030002384F87830032001
:100A1800B8E768B310B50446C36F03B32423E3678C
:100A28002268136823F001031360636AE3B9204660
:100A3800FFF7B0FD012811D02268536823F49043D2
:100A480053602268936823F02A039360226813682E
:100A580043F0010313602046FFF778FF10BD80F8CC
:100A68007830FFF7EBFCD9E72046FFF7BBFEDEE75F
:100A78000120704710B504460E4B1A784FF47A736C
:100A8800B3FBF2F30C4A1068B0FBF3F000F008FF78
:100A980068B90F2C01D901200AE0002221464FF045
:100AA800FF3000F0EDFE054B1C60002000E0012047
:100AB80010BD00BF00000020080000200400002036
:100AC80008B5074A136843F010031360032000F0C9
:100AD800C5FE0F20FFF7CEFFFFF798FC002008BDEA
:100AE80000200240034A1168034B1B780B44136033
:100AF800704700BF8403002000000020014B1868E5
:100B0800704700BF8403002038B50446FFF7F6FF9E
:100B18000546B4F1FF3F02D0044B1B781C44FFF795
:100B2800EDFF401BA042FAD338BD00BF00000020F3
:100B3800002800F0FF8270B582B00446036813F005
:100B4800010F3BD0B44B5B6803F00C03042B1ED0A1
:100B5800B14B5B6803F00C03082B13D06368B3F543
:100B6800803F68D0002B40F0928003F1804303F56A
:100B780004331A6822F480321A601A6822F4802238
:100B88001A605DE0A44B5B6813F4803FE6D04FF435
:100B9800003393FAA3F3A04B19684FF4003393FA88
:100BA800A3F3B3FA83F303F01F03012202FA03F35A
:100BB8000B4203D06368002B00F0BE82236813F059
:100BC800020F00F0C480944B5B6813F00C0F00F028
:100BD8009C80914B5B6803F00C03082B00F08F801E
:100BE8002369002B00F0F080012292FAA2F3B3FAF5
:100BF80083F303F1845303F584139B001A60FFF712
:100C08007DFF0546022393FAA3F3834B1968022359
:100C180093FAA3F3B3FA83F303F01F03012202FA52
:100C280003F30B4240F0C280FFF768FF401B022825
:100C3800E8D9032089E2784A136843F480331360C3
:100C4800754AD36A23F00F03A1680B43D362636824
:100C5800002B36D0FFF752FF05464FF4003393FAC6
:100C6800A3F36D4B19684FF4003393FAA3F3B3FA67
:100C780083F303F01F03012202FA03F30B429DD111
:100C8800FFF73CFF401B6428E7D903205DE2B3F57A
:100C9800A02F09D0604B1A6822F480321A601A68B3
:100CA80022F480221A60CBE703F18043A3F53C339A
:100CB8001A6842F480221A601A6842F480321A6074
:100CC800BEE7FFF71BFF05464FF4003393FAA3F383
:100CD800514B19684FF4003393FAA3F3B3FA83F333
:100CE80003F01F03012202FA03F30B423FF466AF3D
:100CF800FFF704FF401B6428E6D9032025E2464B92
:100D08005B6813F4803F7FF46BAF022393FAA3F37D
:100D1800414B1968022393FAA3F3B3FA83F303F060
:100D28001F03012202FA03F30B4203D02369934203
:100D380040F004823848036823F0F8036169F82218
:100D480092FAA2F2B2FA82F291400B43036023684E
:100D580013F0080F00F08C80A369002B60D00121EC
:100D680091FAA1F2B2FA82F22C4B13449B0019605B
:100D7800FFF7C4FE0546022393FAA3F293FAA3F2FF
:100D880093FAA3F2244A516A93FAA3F3B3FA83F3CA
:100D980003F01F03012202FA03F30B4268D1FFF7A5
:100DA800ADFE401B0228E6D90320CEE11A480368AD
:100DB80023F0F8036169F82292FAA2F2B2FA82F2F9
:100DC80091400B430360C2E7012393FAA3F3B3FAFC
:100DD80083F303F1845303F584139B0000221A6004
:100DE800FFF78CFE0546022393FAA3F30A4B196812
:100DF800022393FAA3F3B3FA83F303F01F03012248
:100E080002FA03F30B42A2D0FFF778FE401B022838
:100E1800E9D9032099E100BF001002402081901019
:100E2800012292FAA2F2B2FA82F2B74B13449B0063
:100E380000221A60FFF762FE0546022393FAA3F226
:100E480093FAA3F293FAA3F2B04A516A93FAA3F37E
:100E5800B3FA83F303F01F03012202FA03F30B42F0
:100E680006D0FFF74BFE401B0228E6D903206CE1B1
:100E7800236813F0040F00F0A980A44BDB6913F07A
:100E8800805F20D1A14BDA6942F08052DA61DB69D8
:100E980003F080530193019B01259D4B1B6813F4BC
:100EA800807F12D0E368012B23D073BB03F180430A
:100EB80003F504331A6A22F001021A621A6A22F050
:100EC80004021A621AE00025E7E7914A136843F41E
:100ED80080731360FFF712FE06468D4B1B6813F4F0
:100EE800807FDFD1FFF70AFE801B6428F5D9032035
:100EF8002BE1864A136A43F001031362E368002B6F
:100F08003CD0FFF7FBFD06462EE0052B09D07F4BB2
:100F18001A6A22F001021A621A6A22F004021A629C
:100F2800ECE77A4B1A6A42F004021A621A6A42F033
:100F380001021A62E2E7022393FAA3F3734B596A98
:100F4800022393FAA3F3B3FA83F303F01F030122F6
:100F580002FA03F3194238D1FFF7D0FD801B41F2A2
:100F68008833984200F2EC80022393FAA3F293FAB2
:100F7800A3F3002BDFD0654B196AE1E7FFF7BEFD4D
:100F8800064618E0022393FAA3F3604B596A02233A
:100F980093FAA3F3B3FA83F303F01F03012202FACF
:100FA80003F3194211D0FFF7A9FD801B41F28833E2
:100FB800984200F2C780022393FAA3F293FAA3F3AC
:100FC800002BDFD0514B196AE1E7B5BBE369002B71
:100FD80000F0BA804D4A526802F00C02082A00F06C
:100FE8009980022B2FD04FF0807393FAA3F3B3FAB2
:100FF80083F303F1845303F584139B0000221A60E2
:10100800FFF77CFD04464FF0007393FAA3F33F4BC0
:1010180019684FF0007393FAA3F3B3FA83F303F05C
:101028001F03012202FA03F319426BD0FFF766FD92
:10103800001B0228E7D9032087E0344AD36923F04C
:101048008053D361C2E74FF0807393FAA3F3B3FAE6
:1010580083F303F1845303F584139B0000221A6081
:10106800FFF74CFD05464FF0007393FAA3F3274BA7
:1010780019684FF0007393FAA3F3B3FA83F303F0FC
:101088001F03012202FA03F3194206D0FFF736FDC7
:10109800401B0228E7D9032057E01C494B6823F47A
:1010A8007413626A206A024313434B604FF08073E3
:1010B80093FAA3F3B3FA83F303F1845303F5841388
:1010C8009B0001221A60FFF719FD04464FF00073D8
:1010D80093FAA3F30D4B19684FF0007393FAA3F337
:1010E800B3FA83F303F01F03012202FA03F3194250
:1010F80006D1FFF703FD001B0228E7D9032024E0EF
:10110800002022E0002020E0208190100010024002
:1011180000700040012B1AD0104B5B6803F480313B
:10112800226A914215D103F47013626A934212D174
:1011380000200AE001207047012006E0012004E0B9
:10114800032002E0032000E0002002B070BD01206F
:10115800FBE70120F9E70120F7E700BF0010024094
:101168000F4B5B6803F00C02082A01D00D4870474A
:10117800C3F383420C49885C094AD26A02F00F0221
:101188000A498A5C13F4803F05D0064BB3FBF2F39F
:1011980003FB00F07047064B03FB00F0704700BFED
:1011A8000010024000127A005C1A00084C1A00086D
:1011B80000093D00002800F0BE8070B50D460446C9
:1011C800614B1B6803F007038B420BD25E4A13681E
:1011D80023F007030B431360136803F007038B42E4
:1011E80040F0AB80236813F0020F06D0574A5368CB
:1011F80023F0F003A1680B435360236813F0010F39
:101208005AD06368012B2DD0022B40D0022292FACB
:10121800A2F24E4A1068022292FAA2F2B2FA82F2BE
:1012280002F01F02012101FA02F2104200F0878049
:1012380046494A6822F0030213434B60FFF75EFCFD
:101248000646424B5B6803F00C036268B3EB820FFF
:1012580032D0FFF753FC801B41F288339842F0D913
:10126800032067E04FF4003292FAA2F2374A10687E
:101278004FF4003292FAA2F2B2FA82F202F01F029E
:10128800012101FA02F20242D2D1012052E04FF0CC
:10129800007292FAA2F22D4A10684FF0007292FA88
:1012A800A2F2B2FA82F202F01F02012101FA02F25E
:1012B8001042BDD101203DE0234B1B6803F007031A
:1012C800AB420AD9204A136823F007032B43136063
:1012D800136803F00703AB4233D1236813F0040FFC
:1012E80006D01A4A536823F4E063E1680B4353605D
:1012F800236813F0080F07D0144A536823F4605387
:10130800216943EAC1035360FFF72AFF0F4B5B686B
:1013180003F0F003F02292FAA2F2B2FA82F2D3407A
:101328000B4AD35CD8400B4B18600B4B1868FFF77F
:10133800A1FB002070BD012070470120FAE70120C1
:10134800F8E70120F6E700BF002002400010024045
:10135800741A00080800002004000020014B1868D7
:10136800704700BF0800002008B5FFF7F7FF074BDC
:101378005B6803F4E0634FF4E06292FAA2F2B2FA17
:1013880082F2D340024AD35CD84008BD0010024024
:101398006C1A000808B5FFF7E1FF074B5B6803F418
:1013A80060534FF4605292FAA2F2B2FA82F2D3403A
:1013B800024AD35CD84008BD001002406C1A0008ED
:1013C800F0B583B00446036813F4803F48D0914BCE
:1013D800DB6913F0805F40F0D4808E4BDA6942F00D
:1013E8008052DA61DB6903F080530193019B012588
:1013F800894B1B6813F4807F00F0C580854B1B6AFE
:1014080013F4407322D0626802F440729A421DD0ED
:101418008048016A21F440764FF4803393FAA3F2AE
:10142800B2FA82F27D4F3A4492004FF0010CC2F8B2
:1014380000C093FAA3F3B3FA83F33B449B00002262
:101448001A60066211F0010F40F0B280714A136A07
:1014580023F4407361680B431362002D40F0CF8082
:10146800236813F0010F06D06A4A136B23F00303B5
:10147800A1680B431363236813F0020F06D0654A73
:10148800136B23F44033E1680B431363236813F0B1
:10149800040F06D05F4A136B23F4402321690B43E2
:1014A8001363236813F0200F06D05A4A136B23F0F6
:1014B8001003E1690B431363236813F4003F06D05C
:1014C800544A536823F48003A16B0B435360236889
:1014D80013F0400F06D04F4A136B23F02003216A04
:1014E8000B431363236813F0080F06D0494A136BA4
:1014F80023F4401361690B431363236813F0100F3F
:1015080006D0444A136B23F44003A1690B431363C9
:10151800236813F4007F06D03E4A536823F400037F
:10152800E16A0B435360236813F0800F06D0394AF1
:10153800D36A23F4F873616A0B43D362236813F404
:10154800807F06D0334AD36A23F47853A16A0B43C9
:10155800D362236813F4805F06D02E4A136B23F4FA
:101568008073216B0B431363236813F4005F4DD022
:10157800284A136B23F40073616B0B431363002039
:1015880045E0002534E7244A136843F48073136068
:10159800FFF7B4FA0646204B1B6813F4807F7FF4EC
:1015A8002DAFFFF7ABFA801B6428F4D903202EE097
:1015B800FFF7A4FA064618E0022393FAA3F3154BA3
:1015C800596A022393FAA3F3B3FA83F303F01F03D0
:1015D800012202FA03F30B427FF438AFFFF78EFAC9
:1015E800801B41F2883398420ED8022393FAA3F263
:1015F80093FAA3F3002BDFD0064B196AE1E7D3690E
:1016080023F08053D3612BE7032000E0002003B0D0
:10161800F0BD00BF00100240007000400081901033
:10162800F0B583B0002362E085685E000324B4400F
:1016380025EA0405CC68B4402C438460456825EA53
:101648000C054C68C4F300149C402C4344605FE0D4
:10165800DD08083550F8254003F0070C4FEA8C0CDC
:101668004FF00F0E0EFA0CFE24EA0E0E0C6904FA67
:101678000CF444EA0E0440F8254060E0042400E03D
:10168800002404FA0EF42C430CF1020C524D45F8D8
:101698002C40524CA568D44325EA02064F6817F43B
:1016A800801F01D042EA05064C4DAE60ED6804EAA1
:1016B80005064F6817F4001F01D042EA0506474D9A
:1016C800EE606D6804EA05064F6817F4003F01D024
:1016D80042EA0506414D6E602D682C404E6816F4AE
:1016E800803F01D042EA05043C4A146001330A688D
:1016F80032FA03F46ED04FF0010C0CFA03FC1CEA2A
:101708000202F3D04C6804F00304013C012C8BD98D
:101718004C6804F00304032C0CD0C4685D004FF03F
:10172800030C0CFA05FC24EA0C0C8C68AC4044EA67
:101738000C04C4604C6804F00304022C88D00468CC
:101748004FEA430E4FF0030C0CFA0EFC24EA0C0C83
:101758004C6804F0030404FA0EF444EA0C04046030
:101768004C6814F4403FC1D01D4CA56945F00105F3
:10177800A561A46904F001040194019C4FEA930C4B
:101788000CF10205144C54F8255003F0030E4FEAEF
:101798008E0E0F2404FA0EF425EA0405B0F1904FDA
:1017A8003FF46EAF0F4CA0420ED004F58064A04207
:1017B8000CD004F58064A0420AD004F58064A042ED
:1017C8003FF45CAF05245CE701245AE7022458E79C
:1017D800032456E703B0F0BD0000014000040140B7
:1017E80000100240000400480AB18161704781621C
:1017F80070470000002808DB0901C9B200F1604009
:1018080000F5614080F80013704700F00F000901EF
:10181800C9B2014B1954704714ED00E000B500F04F
:101828000700C0F1070CBCF1040F28BF4FF0040CEF
:10183800031D062B0FD9C31E4FF0FF3E0EFA0CF006
:1018480021EA000199400EFA03FE22EA0E0241EA5B
:1018580002005DF804FB0023EEE70000074AD368A6
:1018680023F4E0631B041B0C000200F4E060034354
:1018780043F0BF6343F40033D360704700ED00E0EA
:1018880010B50446054BD868C0F30220FFF7C6FF21
:1018980001462046FFF7AEFF10BD00BF00ED00E097
:1018A8000138B0F1807F0BD24FF0E0235861054A30
:1018B800F02182F823100020986107221A617047EE
:1018C8000120704700ED00E000284DD010B5044617
:1018D80090F891323BB1032384F891322068FEF7E7
:1018E80015FE002315E080F89032FEF7DBFDF2E7E5
:1018F80003EB830204EBC20201215174137400212B
:10190800D17411625162013303EB8302D200A150FA
:10191800DBB220799842EBD8002316E003EB830270
:1019280004EBC202002182F8511182F8503182F88A
:101938005311C2F86011C2F8641103EB830204EB7F
:10194800C202C2F868110133DBB29842E6D82346D6
:1019580053F8040B93E80600FEF7E2FD002020731D
:10196800012384F8913210BD01207047034AD2F850
:10197800883043F47003C2F88830704700ED00E007
:10198800DFF834D0FFF7F2FF0C480D490D4A002369
:1019980002E0D458C4500433C4188C42F9D30A4A1C
:1019A8000A4C002301E013600432A242FBD300F08A
:1019B80011F8FEF7FBFCFEE7008000200000002085
:1019C8000C0000208C1A00080C000020880300205E
:1019D800FEE7000070B50D4D0D4C641BA4100026E9
:1019E800A64209D10B4D0C4C00F020F8641BA41042
:1019F8000026A64205D170BD55F8043B984701362C
:101A0800EEE755F8043B98470136F2E7841A0008D8
:101A1800841A0008841A0008881A00080244034639
:101A2800934200D1704703F8011BF9E7F8B500BFEE
:101A3800F8BC08BC9E467047F8B500BFF8BC08BCA7
:041A48009E467047FF
:101A4C000102030405060708090A0B0C0D0E0F1002
:101A5C0002030405060708090A0B0C0D0E0F1010E3
:101A6C000000000001020304000000000000000060
:081A7C0001020304060708093A
:041A8400F101000864
:041A8800C901000888
:0C1A8C00010000001000000000127A00B1
:04000005080019894D
:00000001FF
