:020000040800F2
:1000000000300020790F0008510300085903000850
:100010005B0300085D0300085F03000800000000A8
:100020000000000000000000000000006103000864
:100030006303000800000000650300086703000870
:10004000C90F0008C90F0008C90F0008C90F000830
:10005000C90F0008C90F0008C90F0008C90F000820
:10006000C90F0008C90F0008C90F0008C90F000810
:10007000C90F0008C90F0008C90F0008C90F000800
:10008000C90F0008C90F0008C90F0008C90F0008F0
:10009000C90F0008C90F0008C90F0008C90F0008E0
:1000A000C90F0008C90F0008C90F0008C90F0008D0
:1000B000C90F0008C90F000800000000C90F0008A0
:1000C000C90F00080000000000000000C90F000870
:1000D00000000000C90F0008C90F0008C90F000880
:1000E000C90F0008C90F0008000000000000000050
:1000F0000000000000000000000000000000000000
:1001000000000000000000000000000000000000EF
:100110000000000000000000C90F0008C90F00081F
:1001200000000000000000000000000000000000CF
:1001300000000000000000000000000000000000BF
:10014000C90F0008C90F00080000000000000000EF
:10015000000000000000000000000000000000009F
:10016000000000000000000000000000000000008F
:10017000000000000000000000000000000000007F
:0801800000000000C90F000897
:100188000348044B834202D0034B03B1184770471E
:100198000C0000200C000020000000000548064B61
:1001A8001B1AD90F01EBA301491002D0034B03B16D
:1001B800184770470C0000200C00002000000000C9
:1001C80010B5064C237843B9FFF7DAFF044B13B197
:1001D8000448AFF300800123237010BD0C000020F9
:1001E800000000002410000808B5054B1BB10549A4
:1001F8000548AFF30080BDE80840FFF7CFBF00BF58
:1002080000000000100000202410000870B588B01D
:10021800002403940494059406940794204B5A6987
:1002280042F400225A615A6902F400220092009AAC
:100238005A6942F480025A615A6902F480020192B2
:10024800019A5A6942F400325A615B6903F4003337
:100258000293029B134E22464FF40051304600F0A1
:100268000DFE22464FF400714FF0904000F006FE5C
:100278004FF400530393012504950594069403A9AC
:10028800304600F01DFD4FF4007303930495059468
:10029800069403A94FF0904000F012FD08B070BD1D
:1002A800001002400008004872B6FEE700B591B0A1
:1002B8002822002106A800F0A9FE0023019302933A
:1002C800039304930593012306934FF48032079216
:1002D8000A9306A800F0BEF880B90F230193012302
:1002E8000293002103910491059101A800F002FCFA
:1002F80030B900F0C7FB11B05DF804FBFFF7D4FF7D
:10030800FFF7D2FF00B583B000F06CF8FFF7CEFF1F
:10031800FFF77CFF012301930A4C00224FF40051A0
:10032800204600F0ABFD4FF47A7000F07FF8012210
:100338004FF40051204600F0A1FD4FF47A7000F010
:1003480075F8E9E70008004808B500F0A9FCFEE7E1
:10035800FEE7FEE7FEE7FEE770477047704708B51F
:1003680000F052F808BD000082B00A4B9A6942F0CA
:1003780001029A619A6902F001020092009ADA6910
:1003880042F08052DA61DB6903F080530193019BEC
:1003980002B070470010024010B504460E4B1A78A0
:1003A8004FF47A73B3FBF2F30C4A1068B0FBF3F026
:1003B80000F0C0FD68B90F2C01D901200AE0002225
:1003C80021464FF0FF3000F0A5FD054B1C600020D2
:1003D80000E0012010BD00BF000000200800002040
:1003E8000400002008B5074A136843F0100313609F
:1003F800032000F07DFD0F20FFF7CEFFFFF7B4FFCD
:10040800002008BD00200240034A1168034B1B78F6
:100418000B441360704700BF280000200000002034
:10042800014B1868704700BF2800002038B5044603
:10043800FFF7F6FF0546B4F1FF3F02D0044B1B78E7
:100448001C44FFF7EDFF401BA042FAD338BD00BFA4
:1004580000000020002800F0FF8270B582B004463A
:10046800036813F0010F3BD0B44B5B6803F00C0337
:10047800042B1ED0B14B5B6803F00C03082B13D080
:100488006368B3F5803F68D0002B40F0928003F199
:10049800804303F504331A6822F480321A601A681C
:1004A80022F480221A605DE0A44B5B6813F4803F5D
:1004B800E6D04FF4003393FAA3F3A04B19684FF436
:1004C800003393FAA3F3B3FA83F303F01F03012273
:1004D80002FA03F30B4203D06368002B00F0BE82DC
:1004E800236813F0020F00F0C480944B5B6813F08C
:1004F8000C0F00F09C80914B5B6803F00C03082BF9
:1005080000F08F802369002B00F0F080012292FA1E
:10051800A2F3B3FA83F303F1845303F584139B0026
:100528001A60FFF77DFF0546022393FAA3F3834B76
:100538001968022393FAA3F3B3FA83F303F01F03B2
:10054800012202FA03F30B4240F0C280FFF768FF72
:10055800401B0228E8D9032089E2784A136843F44B
:1005680080331360754AD36A23F00F03A1680B43E5
:10057800D3626368002B36D0FFF752FF05464FF46D
:10058800003393FAA3F36D4B19684FF4003393FAD1
:10059800A3F3B3FA83F303F01F03012202FA03F370
:1005A8000B429DD1FFF73CFF401B6428E7D903208D
:1005B8005DE2B3F5A02F09D0604B1A6822F48032AF
:1005C8001A601A6822F480221A60CBE703F180438C
:1005D800A3F53C331A6842F480221A601A6842F480
:1005E80080321A60BEE7FFF71BFF05464FF4003361
:1005F80093FAA3F3514B19684FF4003393FAA3F31A
:10060800B3FA83F303F01F03012202FA03F30B4248
:100618003FF466AFFFF704FF401B6428E6D90320C8
:1006280025E2464B5B6813F4803F7FF46BAF0223EF
:1006380093FAA3F3414B1968022393FAA3F3B3FA8D
:1006480083F303F01F03012202FA03F30B4203D0E2
:100658002369934240F004823848036823F0F80382
:100668006169F82292FAA2F2B2FA82F291400B433F
:100678000360236813F0080F00F08C80A369002B37
:1006880060D0012191FAA1F2B2FA82F22C4B134404
:100698009B001960FFF7C4FE0546022393FAA3F2F4
:1006A80093FAA3F293FAA3F2244A516A93FAA3F3B2
:1006B800B3FA83F303F01F03012202FA03F30B4298
:1006C80068D1FFF7ADFE401B0228E6D90320CEE132
:1006D8001A48036823F0F8036169F82292FAA2F233
:1006E800B2FA82F291400B430360C2E7012393FA06
:1006F800A3F3B3FA83F303F1845303F584139B0044
:1007080000221A60FFF78CFE0546022393FAA3F332
:100718000A4B1968022393FAA3F3B3FA83F303F09D
:100728001F03012202FA03F30B42A2D0FFF778FE5F
:10073800401B0228E9D9032099E100BF00100240BC
:1007480020819010012292FAA2F2B2FA82F2B74BFB
:1007580013449B0000221A60FFF762FE054602233D
:1007680093FAA3F293FAA3F293FAA3F2B04A516A66
:1007780093FAA3F3B3FA83F303F01F03012202FAF7
:1007880003F30B4206D0FFF74BFE401B0228E6D9C5
:1007980003206CE1236813F0040F00F0A980A44B38
:1007A800DB6913F0805F20D1A14BDA6942F08052F7
:1007B800DA61DB6903F080530193019B01259D4BAE
:1007C8001B6813F4807F12D0E368012B23D073BB1E
:1007D80003F1804303F504331A6A22F001021A6216
:1007E8001A6A22F004021A621AE00025E7E7914A21
:1007F800136843F480731360FFF712FE06468D4BAF
:100808001B6813F4807FDFD1FFF70AFE801B642882
:10081800F5D903202BE1864A136A43F001031362DA
:10082800E368002B3CD0FFF7FBFD06462EE0052BC6
:1008380009D07F4B1A6A22F001021A621A6A22F062
:1008480004021A62ECE77A4B1A6A42F004021A624E
:100858001A6A42F001021A62E2E7022393FAA3F34A
:10086800734B596A022393FAA3F3B3FA83F303F0A1
:100878001F03012202FA03F3194238D1FFF7D0FD12
:10088800801B41F28833984200F2EC80022393FAED
:10089800A3F293FAA3F3002BDFD0654B196AE1E7C3
:1008A800FFF7BEFD064618E0022393FAA3F3604B58
:1008B800596A022393FAA3F3B3FA83F303F01F03ED
:1008C800012202FA03F3194211D0FFF7A9FD801B98
:1008D80041F28833984200F2C780022393FAA3F2C8
:1008E80093FAA3F3002BDFD0514B196AE1E7B5BBAC
:1008F800E369002B00F0BA804D4A526802F00C02FE
:10090800082A00F09980022B2FD04FF0807393FAB9
:10091800A3F3B3FA83F303F1845303F584139B0021
:1009280000221A60FFF77CFD04464FF0007393FA2B
:10093800A3F33F4B19684FF0007393FAA3F3B3FA8C
:1009480083F303F01F03012202FA03F319426BD069
:10095800FFF766FD001B0228E7D9032087E0344A29
:10096800D36923F08053D361C2E74FF0807393FAC1
:10097800A3F3B3FA83F303F1845303F584139B00C1
:1009880000221A60FFF74CFD05464FF0007393FAFA
:10099800A3F3274B19684FF0007393FAA3F3B3FA44
:1009A80083F303F01F03012202FA03F3194206D06E
:1009B800FFF736FD401B0228E7D9032057E01C4902
:1009C8004B6823F47413626A206A024313434B6032
:1009D8004FF0807393FAA3F3B3FA83F303F18453CC
:1009E80003F584139B0001221A60FFF719FD0446E2
:1009F8004FF0007393FAA3F30D4B19684FF000738F
:100A080093FAA3F3B3FA83F303F01F03012202FA64
:100A180003F3194206D1FFF703FD001B0228E7D9AB
:100A2800032024E0002022E0002020E02081901014
:100A38000010024000700040012B1AD0104B5B6878
:100A480003F48031226A914215D103F47013626A6B
:100A5800934212D100200AE001207047012006E0ED
:100A6800012004E0032002E0032000E0002002B09F
:100A780070BD0120FBE70120F9E70120F7E700BF7F
:100A8800001002404FF4002393FAA3F3B3FA83F360
:100A980003F1845303F584139B0001221A60704705
:100AA8000F4B5B6803F00C02082A01D00D48704711
:100AB800C3F383420C49885C094AD26A02F00F02E8
:100AC8000A498A5C13F4803F05D0064BB3FBF2F366
:100AD80003FB00F07047064B03FB00F0704700BFB4
:100AE8000010024000127A004C1000083C10000868
:100AF80000093D00002800F0BE8070B50D46044690
:100B0800614B1B6803F007038B420BD25E4A1368E4
:100B180023F007030B431360136803F007038B42AA
:100B280040F0AB80236813F0020F06D0574A536891
:100B380023F0F003A1680B435360236813F0010FFF
:100B48005AD06368012B2DD0022B40D0022292FA92
:100B5800A2F24E4A1068022292FAA2F2B2FA82F285
:100B680002F01F02012101FA02F2104200F0878010
:100B780046494A6822F0030213434B60FFF750FCD2
:100B88000646424B5B6803F00C036268B3EB820FC6
:100B980032D0FFF745FC801B41F288339842F0D9E8
:100BA800032067E04FF4003292FAA2F2374A106845
:100BB8004FF4003292FAA2F2B2FA82F202F01F0265
:100BC800012101FA02F20242D2D1012052E04FF093
:100BD800007292FAA2F22D4A10684FF0007292FA4F
:100BE800A2F2B2FA82F202F01F02012101FA02F225
:100BF8001042BDD101203DE0234B1B6803F00703E1
:100C0800AB420AD9204A136823F007032B43136029
:100C1800136803F00703AB4233D1236813F0040FC2
:100C280006D01A4A536823F4E063E1680B43536023
:100C3800236813F0080F07D0144A536823F460534D
:100C4800216943EAC1035360FFF72AFF0F4B5B6832
:100C580003F0F003F02292FAA2F2B2FA82F2D34041
:100C68000B4AD35CD8400B4B18600B4B1868FFF746
:100C780093FB002070BD012070470120FAE7012096
:100C8800F8E70120F6E700BF00200240001002400C
:100C98005C100008080000200400002070470000D5
:100CA80008B5064B9B6813F0800F00D108BDFFF70D
:100CB800F5FF024B80229A72F8E700BF001002404D
:100CC800F0B583B0002362E085685E000324B44079
:100CD80025EA0405CC68B4402C438460456825EABD
:100CE8000C054C68C4F300149C402C4344605FE03E
:100CF800DD08083550F8254003F0070C4FEA8C0C46
:100D08004FF00F0E0EFA0CFE24EA0E0E0C6904FAD0
:100D18000CF444EA0E0440F8254060E0032400E0A7
:100D2800002404FA0EF42C430CF1020C4F4D45F844
:100D38002C404F4CA568D44325EA02064F6817F4A7
:100D4800801F01D042EA0506494DAE60ED6804EA0D
:100D580005064F6817F4001F01D042EA0506444D06
:100D6800EE606D6804EA05064F6817F4003F01D08D
:100D780042EA05063E4D6E602D682C404E6816F41A
:100D8800803F01D042EA0504394A146001330A68F9
:100D980032FA03F468D04FF0010C0CFA03FC1CEA99
:100DA8000202F3D04C6804F00304013C012C8BD9F7
:100DB8004C6804F00304032C0CD0C4685D004FF0A9
:100DC800030C0CFA05FC24EA0C0C8C68AC4044EAD1
:100DD8000C04C4604C6804F00304022C88D0046836
:100DE8004FEA430E4FF0030C0CFA0EFC24EA0C0CED
:100DF8004C6804F0030404FA0EF444EA0C0404609A
:100E08004C6814F4403FC1D01A4CA56945F001055F
:100E1800A561A46904F001040194019C4FEA930CB4
:100E28000CF10205114C54F8255003F0030E4FEA5B
:100E38008E0E0F2404FA0EF425EA0405B0F1904F43
:100E48003FF46EAF0C4CA0420AD004F58064A04277
:100E580008D004F58064A0423FF460AF052460E741
:100E680001245EE702245CE703B0F0BD0000014006
:100E78000004014000100240000400480AB18161EA
:100E88007047816270470000002808DB0901C9B279
:100E980000F1604000F5614080F80013704700F0F1
:100EA8000F000901C9B2014B1954704714ED00E055
:100EB80000B500F00700C0F1070CBCF1040F28BF13
:100EC8004FF0040C031D062B0FD9C31E4FF0FF3E35
:100ED8000EFA0CF021EA000199400EFA03FE22EA0C
:100EE8000E0241EA02005DF804FB0023EEE7000071
:100EF800074AD36823F4E0631B041B0C000200F4C8
:100F0800E060034343F0BF6343F40033D3607047AA
:100F180000ED00E010B50446054BD868C0F3022088
:100F2800FFF7C6FF01462046FFF7AEFF10BD00BF22
:100F380000ED00E00138B0F1807F0BD24FF0E023E4
:100F48005861054AF02182F8231000209861072291
:100F58001A6170470120704700ED00E0034AD2F89B
:100F6800883043F47003C2F88830704700ED00E021
:100F7800DFF834D0FFF7F2FF0C480D490D4A002383
:100F880002E0D458C4500433C4188C42F9D30A4A36
:100F98000A4C002301E013600432A242FBD300F0A4
:100FA80011F8FFF7AFF9FEE700300020000000203D
:100FB8000C000020741000080C0000202C000020F9
:100FC800FEE7000070B50D4D0D4C641BA410002603
:100FD800A64209D10B4D0C4C00F020F8641BA4105C
:100FE8000026A64205D170BD55F8043B9847013646
:100FF800EEE755F8043B98470136F2E76C10000815
:101008006C1000086C1000087010000802440346B9
:10101800934200D1704703F8011BF9E7F8B500BF08
:10102800F8BC08BC9E467047F8B500BFF8BC08BCC1
:041038009E46704719
:10103C000102030405060708090A0B0C0D0E0F101C
:10104C0002030405060708090A0B0C0D0E0F1010FD
:10105C00000000000000000001020304060708095C
:04106C00F101000886
:04107000C9010008AA
:0C107400010000001000000000127A00D3
:0400000508000F7967
:00000001FF
